:020000040800F2
:10000000002800204D1A00080913000811130008E9
:10001000191300082113000829130008000000002C
:100020000000000000000000000000003113000884
:100030003D13000800000000491300085513000894
:10004000951A0008951A0008951A0008951A0008D4
:10005000951A0008951A0008951A0008951A0008C4
:10006000951A0008951A0008951A0008951A0008B4
:10007000951A0008951A0008951A0008951A0008A4
:10008000951A0008951A0008951A0008951A000894
:10009000951A0008951A0008951A0008951A000884
:1000A000951A0008951A0008951A0008951A000874
:1000B00061130008951A000800000000951A000856
:1000C000951A00080000000000000000951A0008C2
:1000D00000000000951A0008951A000800000000B2
:1000E000951A0008951A0008951A000800000000EB
:1000F0000000000000000000000000000000000000
:0C01000000000000000000005FF808F1A3
:10010C0010B5054C237833B9044B13B10448AFF345
:10011C0000800123237010BD40000020000000006F
:10012C00CC30000808B5034B1BB103490348AFF3AF
:10013C00008008BD0000000044000020CC30000806
:10014C0080B582B000AF00237B607AE0414A7B68C7
:10015C0052F8232040497B6841F823203F4A7B68B2
:10016C0052F823203B497B6841F823203C4A7B68AA
:10017C0052F823203B497B6831F81330194610465E
:10018C0001F070FF03461946344A7B6842F823108D
:10019C00314A7B6852F823202E497B6851F8233072
:1001AC009A424BD12B4A7B6852F823202B497B680F
:1001BC0051F823309A4241D12B4A7B6852F82320C4
:1001CC0025497B6851F823309A4218D0224A7B6823
:1001DC0052F8232024497B6841F823201E4A7B686F
:1001EC0052F82330002B29D1204A7B68012142F898
:1001FC0023101F4A7B68642142F823101EE01C4A1E
:10020C007B6852F823305A1E19497B6841F8232029
:10021C00174A7B6852F82330002B0FDC0E4A7B68A0
:10022C0052F82330002B04D1104A7B68012142F88C
:10023C0023100F4A7B68642142F823107B6801333A
:10024C007B607B68022B81DD00BF00BF0837BD4699
:10025C0080BD00BF78000020840000206C000020CE
:10026C0018000020240000209000002060000020D6
:10027C000C00002080B483B000AF7860094A7B6822
:10028C0052F82330012B06D1064A7B68002142F834
:10029C002310012300E0002318460C37BD4680BC18
:1002AC00704700BF6000002080B582B000AF78605E
:1002BC007B68092B00F2BC8101A252F823F000BF2D
:1002CC00F5020008490300089D030008F10300082B
:1002DC004504000899040008ED04000841050008D5
:1002EC0095050008E905000801224FF40051D34898
:1002FC0001F0CFFE00228021D04801F0CAFE00227E
:10030C004FF48071CD4801F0C4FE00224FF400710F
:10031C00CA4801F0BEFE00224FF48061C74801F0CC
:10032C00B8FE00224FF40061C44801F0B2FE002276
:10033C004FF48051C14801F0ACFE7AE101228021DA
:10034C00BE4801F0A6FE01224FF48051BB4801F0DB
:10035C00A0FE01224FF40061B84801F09AFE012280
:10036C004FF48061B54801F094FE01224FF4005126
:10037C00B24801F08EFE00224FF48071AF4801F0BC
:10038C0088FE00224FF40071AC4801F082FE50E16F
:10039C0001224FF48051A94801F07BFE01224FF459
:1003AC000071A64801F075FE00228021A34801F0DF
:1003BC0070FE00224FF48071A04801F06AFE00220A
:1003CC004FF400519D4801F064FE00224FF400618F
:1003DC009A4801F05EFE00224FF48061974801F0CC
:1003EC0058FE26E101224FF48051944801F051FE51
:1003FC0001224FF40061914801F04BFE0022802154
:10040C008E4801F046FE00224FF480718B4801F0BB
:10041C0040FE00224FF40051884801F03AFE0022C1
:10042C004FF40071854801F034FE00224FF48061D6
:10043C00824801F02EFEFCE0012280217F4801F071
:10044C0028FE01224FF400617C4801F022FE0122BB
:10045C004FF48061794801F01CFE00224FF480516A
:10046C00764801F016FE00224FF48071734801F0BB
:10047C0010FE00224FF40051704801F00AFE0022D9
:10048C004FF400716D4801F004FED2E001224FF4EC
:10049C0080716A4801F0FDFD01224FF4006167484C
:1004AC0001F0F7FD00228021644801F0F2FD0022EA
:1004BC004FF48051614801F0ECFD00224FF40051E3
:1004CC005E4801F0E6FD00224FF400715B4801F03C
:1004DC00E0FD00224FF48061584801F0DAFDA8E0FD
:1004EC0001224FF48071554801F0D3FD0022802188
:1004FC00524801F0CEFD00224FF480514F4801F0DC
:10050C00C8FD00224FF400514C4801F0C2FD0022FE
:10051C004FF40061494801F0BCFD00224FF400711A
:10052C00464801F0B6FD00224FF48061434801F0CB
:10053C00B0FD7EE001224FF48051404801F0A9FD4E
:10054C0001224FF400513D4801F0A3FD01224FF46C
:10055C0000613A4801F09DFD01224FF4806137485B
:10056C0001F097FD00228021344801F092FD002219
:10057C004FF48071314801F08CFD00224FF4007172
:10058C002E4801F086FD54E0002280212B4801F01A
:10059C0080FD00224FF48071284801F07AFD002282
:1005AC004FF40071254801F074FD00224FF4805186
:1005BC00224801F06EFD00224FF400511F4801F05B
:1005CC0068FD00224FF400611C4801F062FD00221E
:1005DC004FF48061194801F05CFD2AE001224FF4D0
:1005EC000061164801F055FD00228021134801F0EE
:1005FC0050FD00224FF48071104801F04AFD00229A
:10060C004FF400710D4801F044FD00224FF480516D
:10061C000A4801F03EFD00224FF40051074801F05A
:10062C0038FD00224FF48061044801F032FD00E0F7
:10063C0000BF00BF0837BD4680BD00BF00080140A9
:10064C0080B582B000AF78607B68092B00F29E8188
:10065C0001A252F823F000BF8D060008DB0600084B
:10066C002907000877070008C507000813080008C9
:10067C0061080008AF080008FD0800084B090008D5
:10068C0001224FF48061C44801F003FD00221021C7
:10069C00C14801F0FEFC00222021BF4801F0F9FC0A
:1006AC0000224021BC4801F0F4FC00228021BA4811
:1006BC0001F0EFFC00224FF48071B74801F0E9FC27
:1006CC0000224FF40071B44801F0E3FC5FE1012219
:1006DC001021B14801F0DDFC01224FF40071AE484D
:1006EC0001F0D7FC01224FF48071AB4801F0D1FC32
:1006FC0001228021A84801F0CCFC01224FF480613A
:10070C00A54801F0C6FC00222021A34801F0C1FC41
:10071C0000224021A04801F0BCFC38E101224FF43A
:10072C0000719D4801F0B5FC012240219A4801F06E
:10073C00B0FC00221021984801F0ABFC00222021D3
:10074C00954801F0A6FC00224FF48061924801F01C
:10075C00A0FC00224FF480718F4801F09AFC00221B
:10076C0080218D4801F095FC11E101224FF40071BC
:10077C00894801F08EFC01224FF48071864801F00B
:10078C0088FC00221021844801F083FC00222021E7
:10079C00814801F07EFC00224FF480617E4801F01C
:1007AC0078FC002240217C4801F073FC002280215F
:1007BC00794801F06EFCEAE001221021764801F044
:1007CC0068FC01224FF48071734801F062FC012235
:1007DC008021714801F05DFC00224FF400716E48DD
:1007EC0001F057FC002220216B4801F052FC002242
:1007FC004FF48061684801F04CFC002240216648AF
:10080C0001F047FCC3E001222021634801F041FCC8
:10081C0001224FF48071604801F03BFC0022102152
:10082C005D4801F036FC00224FF400715A4801F08B
:10083C0030FC00224FF48061574801F02AFC002262
:10084C004021554801F025FC00228021524801F03E
:10085C0020FC9CE0012220214F4801F01AFC0022D0
:10086C0010214D4801F015FC00224FF400714A484C
:10087C0001F00FFC00224FF48061474801F009FCA5
:10088C0000224FF48071444801F003FC0022402107
:10089C00414801F0FEFB002280213F4801F0F9FBAA
:1008AC0075E001224FF400713B4801F0F2FB01228C
:1008BC004FF48061384801F0ECFB01224FF4807159
:1008CC00354801F0E6FB01228021334801F0E1FBC1
:1008DC0000221021304801F0DCFB002220212E48A0
:1008EC0001F0D7FB002240212B4801F0D2FB4EE057
:1008FC0000221021284801F0CCFB002220212648A0
:10090C0001F0C7FB00224021234801F0C2FB00226A
:10091C004FF40071204801F0BCFB00224FF48061C1
:10092C001D4801F0B6FB00224FF480711A4801F00B
:10093C00B0FB00228021184801F0ABFB27E001221C
:10094C004FF48071144801F0A4FB002210211248CE
:10095C0001F09FFB002220210F4801F09AFB00229E
:10096C0040210D4801F095FB00224FF400710A481C
:10097C0001F08FFB00224FF48061074801F089FBE6
:10098C0000228021044801F084FB00E000BF00BF7E
:10099C000837BD4680BD00BF000C014080B500AFDC
:1009AC00314B1B68012B5DD1304B1B68304A82FBED
:1009BC0003129211DB17D31A2E4A13602B4B1B68B0
:1009CC002D4A82FB03125211DB17D11A2B4B83FBDE
:1009DC0001239A10CB17D21A13469B0013445B00C9
:1009EC00CA1A244B5A60264B1B68214A82FB0312FD
:1009FC009211DB17D31A234A1360214B1B681E4A32
:100A0C0082FB03125211DB17D11A1C4B83FB0123FF
:100A1C009A10CB17D21A13469B0013445B00CA1AC8
:100A2C00184B5A60184B1B68184600F051F9174BBD
:100A3C001B68184600F084F9134B1B680133002B1C
:100A4C0003F00103B8BF5B420F4A13600F4B1B68E6
:100A5C000133002B03F00103B8BF5B420B4A136058
:100A6C0000F0D6FC00BF80BD180100202001002042
:100A7C00D34D6210A40000201F85EB51676666669B
:100A8C0024010020AC0000209C000020A0000020CD
:100A9C0080B500AF254B1B68012B44D1244B1B6840
:100AAC00244A82FB03121213DB17D31A224A136057
:100ABC001F4B1B68214A82FB03129211DB17D11AC0
:100ACC001F4B83FB01239A10CB17D21A13469B00A2
:100ADC0013445B00CA1A184B5A601A4B00221A6056
:100AEC00184B02225A60184B1B68184600F0F0F89D
:100AFC00164B1B68184600F023F9134B1B68013387
:100B0C00002B03F00103B8BF5B420F4A13600F4B7D
:100B1C001B680133002B03F00103B8BF5B420B4A87
:100B2C00136000F075FC00BF80BD00BF18010020F1
:100B3C001C010020AD8BDB68A4000020D34D62109B
:100B4C0067666666AC0000209C000020A0000020B8
:100B5C0080B500AF254B1B68012B44D1244B1B687F
:100B6C00244A82FB03121213DB17D31A224A136096
:100B7C001F4B1B68214A82FB03129211DB17D11AFF
:100B8C001F4B83FB01239A10CB17D21A13469B00E1
:100B9C0013445B00CA1A184B5A601A4B00221A6095
:100BAC00184B03225A60184B1B68184600F090F83B
:100BBC00164B1B68184600F0C3F8134B1B68013327
:100BCC00002B03F00103B8BF5B420F4A13600F4BBD
:100BDC001B680133002B03F00103B8BF5B420B4AC7
:100BEC00136000F015FC00BF80BD00BF1801002091
:100BFC001C010020AD8BDB68A4000020D34D6210DB
:100C0C0067666666AC0000209C000020A0000020F7
:100C1C0080B500AF254B1B68012B44D1244B1B68BE
:100C2C00244A82FB03121213DB17D31A224A1360D5
:100C3C001F4B1B68214A82FB03129211DB17D11A3E
:100C4C001F4B83FB01239A10CB17D21A13469B0020
:100C5C0013445B00CA1A184B5A601A4B00221A60D4
:100C6C00184B04225A60184B1B68184600F030F8D9
:100C7C00164B1B68184600F063F8134B1B680133C6
:100C8C00002B03F00103B8BF5B420F4A13600F4BFC
:100C9C001B680133002B03F00103B8BF5B420B4A06
:100CAC00136000F0B5FB00BF80BD00BF1801002031
:100CBC001C010020AD8BDB68A4000020D34D62101A
:100CCC0067666666AC0000209C000020A000002037
:100CDC0080B582B000AF78607B68002B03D07B6856
:100CEC00012B12D023E0144B1B681846FFF7DCFADB
:100CFC0001224FF48051114801F0CBF900224FF43E
:100D0C0000610E4801F0C5F911E00B4B5B68184609
:100D1C00FFF7CAFA00224FF48051084801F0B9F9E4
:100D2C0001224FF40061054801F0B3F900BF00BF88
:100D3C000837BD4680BD00BFA4000020000C014058
:100D4C0080B582B000AF78607B68002B03D07B68E5
:100D5C00012B12D023E0144B1B681846FFF770FCD4
:100D6C0001224FF48041114801F093F900224FF415
:100D7C0000510E4801F08DF911E00B4B5B681846E1
:100D8C00FFF75EFC00224FF48041084801F081F926
:100D9C0001224FF40051054801F07BF900BF00BF60
:100DAC000837BD4680BD00BFAC000020000C0140E0
:100DBC0080B500AF00F06AFE00F016F800F09CF869
:100DCC0000F04EF8054801F0C3FD054B00221A60F7
:100DDC00044B01221A6000F095FBFCE7B4000020E4
:100DEC005C0000203400002080B590B000AF07F10B
:100DFC00180328220021184602F036F93B1D002268
:100E0C001A605A609A60DA601A610223BB6101238E
:100E1C00BB621023FB6200237B6307F118031846A7
:100E2C0001F068F90346002B01D000F0D3F80F2332
:100E3C007B600023BB600023FB6000233B6100232D
:100E4C007B613B1D0021184601F0D6FB0346002BAD
:100E5C0001D000F0BFF800BF4037BD4680BD000098
:100E6C0080B586B000AF07F1080300221A605A6003
:100E7C009A60DA603B4600221A605A601D4B4FF0B4
:100E8C0080421A601B4B41F63F725A60194B00228C
:100E9C009A60184B0922DA60164B00221A61154B26
:100EAC0000229A61134801F003FD0346002B01D088
:100EBC0000F090F84FF48053BB6007F1080319461B
:100ECC000C4801F081FE0346002B01D000F082F8A3
:100EDC0000233B6000237B603B461946054802F02B
:100EEC0059F80346002B01D000F074F800BF1837F6
:100EFC00BD4680BDB400002080B586B000AF07F1C0
:100F0C00080300221A605A609A60DA60284B9B69C9
:100F1C00274A43F004039361254B9B6903F00403B8
:100F2C007B607B68224B9B69214A43F008039361E9
:100F3C001F4B9B6903F008033B603B68002243F6A0
:100F4C00FE711C4801F0A5F8002247F6F0711A4812
:100F5C0001F09FF843F6FE73BB600123FB60002396
:100F6C003B6102237B6107F108031946114800F02D
:100F7C00FDFE0723BB600023FB6001233B6107F1EF
:100F8C00080319460C4800F0F1FE47F6F073BB60FD
:100F9C000123FB6000233B6102237B6107F1080303
:100FAC001946054800F0E2FE00BF1837BD4680BD6B
:100FBC000010024000080140000C014080B582B0D6
:100FCC0000AF786000F03AFAFFF7BAF800BF0837C4
:100FDC00BD4680BD80B400AF72B600BF00BFFDE758
:100FEC0080B500AF294B1B68012B0BD1022128487F
:100FFC0001F067F81021264801F063F84FF4FA70FD
:10100C0000F0D2F9FFF744FD0120FFF733F9034656
:10101C00002B18D01F4B1B68B3F57A7F0ADB1D4BD6
:10102C001B681D4A934205DC1A4B1B6803F57A7347
:10103C00184A1360174B1B68174A934203DD154B74
:10104C004FF47A721A600220FFF714F90346002B52
:10105C0019D0124B1A68124B1B681A440D4B1B68A3
:10106C009A4206DB0D4B1A680D4B1B681344094A58
:10107C001360084B1B680B4A13600B4B00221A6061
:10108C000A4B01221A6000BF80BD00BF080100207E
:10109C00000801401C010020B8820100080000205B
:1010AC0004000020000000205C0000203400002020
:1010BC0080B500AF294B1B68012B0BD104212848AC
:1010CC0000F0FFFF2021264800F0FBFF4FF4FA70E0
:1010DC0000F06AF9FFF73CFD0120FFF7CBF803465F
:1010EC00002B18D01F4B1B68B3F57A7F0ADB1D4B06
:1010FC001B681D4A934205DC1A4B1B6803F57A7377
:10110C00184A1360174B1B68174A934203DD154BA3
:10111C004FF47A721A600220FFF7ACF80346002BEA
:10112C0019D0124B1A680F4B1B681A44104B1B68D2
:10113C009A4206DB0E4B1A680C4B1B68D31A094AF1
:10114C001360084B1B680B4A13600B4B00221A6090
:10115C000A4B01221A6000BF80BD00BF08010020AD
:10116C00000801401C010020B8820100080000208A
:10117C0000000020040000205C000020340000204F
:10118C0080B500AF294B1B68012B0BD108212848D7
:10119C0000F097FF4021264800F093FF4FF4FA70BF
:1011AC0000F002F9FFF734FD0120FFF763F8034666
:1011BC00002B18D01F4B1B68B3F57A7F0ADB1D4B35
:1011CC001B681D4A934205DC1A4B1B6803F57A73A6
:1011DC00184A1360174B1B68174A934203DD154BD3
:1011EC004FF47A721A600220FFF744F80346002B82
:1011FC0019D0104B1A68114B1B681A44104B1B6802
:10120C009A4206DB0E4B1A680C4B1B68D31A094A20
:10121C001360084B1B680B4A13600B4B00221A60BF
:10122C000A4B01221A6000BF80BD00BF08010020DC
:10123C00000801401C010020B882010004000020BD
:10124C0000000020080000205C000020340000207A
:10125C0080B485B000AF154B9B69144A43F0010371
:10126C009361124B9B6903F00103BB60BB680F4B8E
:10127C00DB690E4A43F08053D3610C4BDB6903F0FE
:10128C0080537B607B680A4B5B68FB60FB6823F0D8
:10129C00E063FB60FB6843F08063FB60044AFB681F
:1012AC00536000BF1437BD4680BC7047001002402D
:1012BC000000014080B584B000AF78607B681B688B
:1012CC00B3F1804F13D10C4BDB690B4A43F0010394
:1012DC00D361094BDB6903F00103FB60FB6800225F
:1012EC0000211C2000F00BFD1C2000F024FD00BF91
:1012FC001037BD4680BD00BF0010024080B400AF67
:10130C0000BFFDE780B400AF00BFFDE780B400AFC5
:10131C0000BFFDE780B400AF00BFFDE780B400AFB5
:10132C0000BFFDE780B400AF00BFBD4680BC704776
:10133C0080B400AF00BFBD4680BC704780B400AF26
:10134C0000BFBD4680BC704780B500AF00F0E4FB29
:10135C0000BF80BD80B500AF024801F045FB00BF67
:10136C0080BD00BFB400002080B400AF00BFBD46FC
:10137C0080BC704780B483B000AF7860074B1B68AB
:10138C007A6892FBF3F3064A1360064B00221A604C
:10139C0000BF0C37BD4680BC704700BF300000203A
:1013AC00FC0000200001002080B483B000AF786006
:1013BC00074B1B687A6892FBF3F3064A1360064BE3
:1013CC0000221A6000BF0C37BD4680BC704700BFBE
:1013DC0030000020040100200801002080B483B0FC
:1013EC0000AF7860074B1B687A6892FBF3F3064AF0
:1013FC001360064B00221A6000BF0C37BD4680BC40
:10140C00704700BF300000200C01002010010020AC
:10141C0080B400AF064B1B68FA2292FBF3F3054A2B
:10142C001360054B00221A6000BFBD4680BC70479C
:10143C0030000020140100201801002080B400AFFF
:10144C00264B1B68002B0BDD244B1B68013B234AEE
:10145C001360224B1B68002B02DC214B01221A600B
:10146C00204B1B68002B0BDD1E4B1B68013B1D4AE0
:10147C0013601C4B1B68002B02DC1B4B01221A60F7
:10148C001A4B1B68002B0BDD184B1B68013B174AD2
:10149C001360164B1B68002B02DC154B01221A60E3
:1014AC00144B1B68002B0BDD124B1B68013B114AC4
:1014BC001360104B1B68002B02DC0F4B01221A60CF
:1014CC000E4B1B68013B0D4A13600D4B1B68013B17
:1014DC000B4A136000BFBD4680BC7047FC00002067
:1014EC000001002004010020080100200C01002054
:1014FC001001002014010020180100202001002000
:10150C002401002080B500AF0020FEF7B3FE034697
:10151C00002B3AD000220221484800F0BAFD0022EC
:10152C001021464800F0B5FD00220421434800F08C
:10153C00B0FD00222021414800F0ABFD0022082123
:10154C003E4800F0A6FD002240213C4800F0A1FDE1
:10155C003B4B1B68002B08DD394B1B68042B04DC50
:10156C00374B1B680133364A1360354B1B68042B11
:10157C0005DD334B01221A60324B00221A600A201F
:10158C00FFF712FF304B00221A602D4B1B68013BFA
:10159C00032B4AD801A252F823F000BFB91500085A
:1015AC00BF150008E71500080F16000800F054F8E6
:1015BC0042E0254B1B68002B03D1244B1B68224AAD
:1015CC001360FFF70DFD214B1A681F4B1B689A42E5
:1015DC002DD11D4B00221A6029E01B4B1B68002BE0
:1015EC0003D11B4B1B68184A1360FFF761FD184BA6
:1015FC001A68154B1B689A421BD1134B00221A60B8
:10160C0017E0114B1B68002B03D1124B1B680E4AC1
:10161C001360FFF7B5FD0F4B1A680B4B1B689A4212
:10162C0009D1094B00221A6005E000BF04E000BF9D
:10163C0002E000BF00E000BF00BF80BD0008014019
:10164C00340000205C0000201C0100200000002061
:10165C00040000200800002080B500AFA64B1B68DA
:10166C001F2B49DC002BC0F2C9811F2B00F2C68155
:10167C0001A252F823F000BF0D170008091A000848
:10168C00091A0008091A0008091A0008091A0008A2
:10169C00091A0008091A0008091A0008091A000892
:1016AC00091A000873180008D717000889170008D2
:1016BC00091A0008091A0008091A0008091A000872
:1016CC00091A0008091A0008091A00082D1900083F
:1016DC00091A0008091A0008091A0008091A000852
:1016EC00091A0008091A0008091A0008091A000842
:1016FC00091A0008B7180008652B00F05E817DE11F
:10170C00002202217D4800F0C4FC002210217B48FD
:10171C0000F0BFFC00220421784800F0BAFC002243
:10172C002021764800F0B5FC00220821734800F017
:10173C00B0FC00224021714800F0ABFC704B1B68E0
:10174C001846FFF717FE6F4B1B681846FFF746FE4F
:10175C00FFF75EFE684B0D221A60694B1A686A4BE4
:10176C001B6892FBF3F3694A1360664B1A68664B6D
:10177C001B6892FBF3F3664A13604CE101220221D1
:10178C005E4800F086FC012240215C4800F081FCA0
:10179C00FFF704F95F4B1B68012B40F03181564B6E
:1017AC000C221A6000224021544800F072FC5A4B63
:1017BC001B681846FFF712FE574B1A68524B1B68F2
:1017CC0092FBF3F3524A13601AE1012220214B4899
:1017DC0000F05FFCFFF7E2F84E4B1B68012B40F06A
:1017EC0011814E4B1B68012B27D1464B1B681846A9
:1017FC00FFF7C0FD424B1B681846FFF7EFFD0022B8
:10180C0020213E4800F045FC002202213B4800F01C
:10181C0040FC394B1F221A603A4B1A683A4B1B6832
:10182C0092FBF3F3394A1360354B1A68364B1B683D
:10183C0092FBF3F3364A1360E4E0314B1B68184615
:10184C00FFF7CCFD002220212C4800F022FC2A4B73
:10185C000B221A602A4B1A682B4B1B6892FBF3F372
:10186C002B4A1360CEE001221021244800F011FC19
:10187C00FFF794F8294B1B68012B40F0C580214BD6
:10188C001B681846FFF776FD002202211B4800F06A
:10189C0000FC194B1F221A601A4B1A681A4B1B6852
:1018AC0092FBF3F3194A1360AEE0012208211348AE
:1018BC0000F0EFFB01221021104800F0EAFBFFF7CB
:1018CC006DF8164B1B68012B40F0A080124B1B6867
:1018DC001846FFF74FFD00220821084800F0D9FBFD
:1018EC00054B15221A600C4B1A68074B1B6892FBB0
:1018FC00F3F3064A136089E05C0000200008014005
:10190C0000000020080000203000002020010020F2
:10191C002401002010010020040000200001002000
:10192C00012204213D4800F0B4FBFFF737F83C4B93
:10193C001B68012B6CD13B4B1B68012B27D1002260
:10194C000421364800F0A5FB00221021334800F09A
:10195C00A0FB354B1B681846FFF70CFD334B1B687F
:10196C001846FFF73BFD324B0D221A602E4B1A68BE
:10197C00304B1B6892FBF3F32F4A13602B4B1A6806
:10198C002C4B1B6892FBF3F32C4A136040E00022B3
:10199C000421224800F07DFB234B1B681846FFF7FF
:1019AC00E9FC234B65221A601F4B1A68214B1B68FC
:1019BC0092FBF3F3204A13602AE00122022117481C
:1019CC0000F067FBFEF7EAFF164B1B68012B21D1D9
:1019DC00164B1B681846FFF701FD002210210F481B
:1019EC0000F057FB124B0D221A60104B1A68114B6A
:1019FC001B6892FBF3F3114A13600BE000BF0AE083
:101A0C0000BF08E000BF06E000BF04E000BF02E03A
:101A1C0000BF00E000BF00BF80BD00BF0008014058
:101A2C000001002010010020000000200800002010
:101A3C005C00002030000020200100202401002048
:101A4C00FFF792FC0B480C490C4A002302E0D458D7
:101A5C00C4500433C4188C42F9D3094A094C0023EE
:101A6C0001E013600432A242FBD301F005FBFFF747
:101A7C009FF9704700000020400000201031000842
:101A8C00400000202C010020FEE7000080B500AFD4
:101A9C00084B1B68074A43F010031360032000F047
:101AAC0023F90F2000F008F8FFF7D2FB00231846AB
:101ABC0080BD00BF0020024080B582B000AF7860CE
:101ACC00124B1A68124B1B7819464FF47A73B3FBFE
:101ADC00F1F3B2FBF3F3184600F03BF90346002B8D
:101AEC0001D001230EE07B680F2B0AD80022796805
:101AFC004FF0FF3000F003F9064A7B6813600023B7
:101B0C0000E0012318460837BD4680BD2C0000209C
:101B1C003C0000203800002080B400AF054B1B783F
:101B2C001A46054B1B681344034A136000BFBD469D
:101B3C0080BC70473C0000202801002080B400AF1E
:101B4C00024B1B681846BD4680BC7047280100201C
:101B5C0080B485B000AF78607B6803F00703FB604E
:101B6C000C4BDB68BB60BA684FF6FF031340BB60DD
:101B7C00FB681A02BB68134343F0BF6343F40033A2
:101B8C00BB60044ABB68D36000BF1437BD4680BC41
:101B9C00704700BF00ED00E080B400AF044BDB6881
:101BAC001B0A03F007031846BD4680BC704700BFF4
:101BBC0000ED00E080B483B000AF0346FB7197F9F1
:101BCC000730002B0BDBFB7903F01F02064997F95A
:101BDC0007305B09012000FA02F241F8232000BF14
:101BEC000C37BD4680BC704700E100E080B483B088
:101BFC0000AF03463960FB7197F90730002B0ADB05
:101C0C003B68DAB20C4997F907301201D2B20B4497
:101C1C0083F800230AE03B68DAB20849FB7903F049
:101C2C000F03043B1201D2B20B441A7600BF0C37DF
:101C3C00BD4680BC704700BF00E100E000ED00E055
:101C4C0080B489B000AFF860B9607A60FB6803F0CB
:101C5C000703FB61FB69C3F10703042B28BF0423B3
:101C6C00BB61FB690433062B02D9FB69033B00E023
:101C7C0000237B614FF0FF32BB6902FA03F3DA43B6
:101C8C00BB681A407B699A404FF0FF317B6901FABF
:101C9C0003F3D9437B680B40134318462437BD46E6
:101CAC0080BC704780B582B000AF78607B68013B28
:101CBC00B3F1807F01D301230FE00A4A7B68013B1B
:101CCC0053600F214FF0FF30FFF790FF054B0022C0
:101CDC009A60044B07221A60002318460837BD4649
:101CEC0080BD00BF10E000E080B582B000AF78602E
:101CFC007868FFF72DFF00BF0837BD4680BD80B563
:101D0C0086B000AF0346B9607A60FB7300237B6139
:101D1C00FFF742FF78617A68B9687869FFF790FF3E
:101D2C00024697F90F3011461846FFF75FFF00BFC8
:101D3C001837BD4680BD80B582B000AF0346FB713D
:101D4C0097F907301846FFF735FF00BF0837BD4637
:101D5C0080BD80B582B000AF78607868FFF7A2FFD5
:101D6C00034618460837BD4680BD000080B48BB0D2
:101D7C0000AF7860396000237B6200233B6261E135
:101D8C0001227B6A02FA03F3FB613B681B68FA6968
:101D9C001340BB61BA69FB699A4240F050813B68C1
:101DAC005B68974A93425ED0954A934275D8954AA0
:101DBC00934258D0934A93426FD8934A934252D04D
:101DCC00914A934269D8914A93424CD08F4A93429C
:101DDC0063D88F4A934246D08D4A93425DD8122BDA
:101DEC002AD8122B59D801A252F823F0731E0008DE
:101DFC004D1E00085F1E0008A11E0008A71E00084B
:101E0C00A71E0008A71E0008A71E0008A71E000892
:101E1C00A71E0008A71E0008A71E0008A71E000882
:101E2C00A71E0008A71E0008A71E0008A71E000872
:101E3C00551E0008691E0008764A934213D02CE008
:101E4C003B68DB683B6229E03B68DB6804333B6240
:101E5C0024E03B68DB6808333B621FE03B68DB68CF
:101E6C000C333B621AE03B689B68002B02D10423C5
:101E7C003B6213E03B689B68012B05D108233B6256
:101E8C007B68FA691A6109E008233B627B68FA698E
:101E9C005A6103E000233B6200E000BFBB69FF2BEB
:101EAC0001D87B6801E07B6804337B61BB69FF2B45
:101EBC0002D87B6A9B0002E07B6A083B9B003B617B
:101ECC007B691A680F213B6901FA03F3DB431A4063
:101EDC00396A3B6901FA03F31A437B691A603B6860
:101EEC005B6803F08053002B00F0A9804A4B9B6980
:101EFC00494A43F001039361474B9B6903F001038B
:101F0C00BB60BB68454A7B6A9B08023352F823309E
:101F1C00FB607B6A03F003039B000F2202FA03F3BE
:101F2C00DB43FA681340FB607B683D4A93420DD05B
:101F3C007B683C4A934207D07B683B4A934201D171
:101F4C00022304E0032302E0012300E000237A6A69
:101F5C0002F0030292009340FA681343FB602F498E
:101F6C007B6A9B080233FA6841F823203B685B6864
:101F7C0003F48013002B06D02C4B9A682B49BB69B9
:101F8C0013438B6006E0294B9A68BB69DB432749F6
:101F9C0013408B603B685B6803F40013002B06D086
:101FAC00224BDA682149BB691343CB6006E01F4B17
:101FBC00DA68BB69DB431D491340CB603B685B6847
:101FCC0003F40033002B06D0184B5A681749BB6931
:101FDC0013434B6006E0154B5A68BB69DB4313494E
:101FEC0013404B603B685B6803F48033002B1FD0BD
:101FFC000E4B1A680D49BB6913430B601FE000BF01
:10200C0000003210000031100000221000002110DE
:10201C0000001210000011100010024000000140DE
:10202C0000080140000C0140001001400004014078
:10203C000B4B1A68BB69DB43094913400B607B6A85
:10204C0001337B623B681A687B6A22FA03F3002B2C
:10205C007FF496AE00BF00BF2C37BD4680BC7047E6
:10206C000004014080B485B000AF78600B467B80E3
:10207C007B689A687B881340002B02D00123FB738A
:10208C0001E00023FB73FB7B18461437BD4680BC74
:10209C00704780B483B000AF78600B467B801346EA
:1020AC007B707B78002B03D07A887B681A6103E005
:1020BC007B881A047B681A6100BF0C37BD4680BC54
:1020CC00704780B485B000AF78600B467B807B682E
:1020DC00DB68FB607A88FB6813401A04FB68D94301
:1020EC007B880B401A437B681A6100BF1437BD46CE
:1020FC0080BC704780B586B000AF78607B68002BE1
:10210C0001D1012372E27B681B6803F00103002BF1
:10211C0000F08780924B5B6803F00C03042B0CD00F
:10212C008F4B5B6803F00C03082B12D18C4B5B6854
:10213C0003F48033B3F5803F0BD1894B1B6803F458
:10214C000033002B6CD07B685B68002B68D10123BB
:10215C004CE27B685B68B3F5803F06D1804B1B6813
:10216C007F4A43F4803313602EE07B685B68002B5E
:10217C000CD17B4B1B687A4A23F480331360784B69
:10218C001B68774A23F4802313601DE07B685B682F
:10219C00B3F5A02F0CD1724B1B68714A43F480230A
:1021AC0013606F4B1B686E4A43F4803313600BE073
:1021BC006B4B1B686A4A23F480331360684B1B68B3
:1021CC00674A23F4802313607B685B68002B13D071
:1021DC00FFF7B4FC386108E0FFF7B0FC02463B693E
:1021EC00D31A642B01D9032300E25D4B1B6803F463
:1021FC000033002BF0D014E0FFF7A0FC386108E0AE
:10220C00FFF79CFC02463B69D31A642B01D90323CC
:10221C00ECE1534B1B6803F40033002BF0D100E0CE
:10222C0000BF7B681B6803F00203002B63D04C4B90
:10223C005B6803F00C03002B0BD0494B5B6803F07D
:10224C000C03082B1CD1464B5B6803F48033002B2A
:10225C0016D1434B1B6803F00203002B05D07B689F
:10226C001B69012B01D00123C0E13D4B1B6823F0FE
:10227C00F8027B685B69DB00394913430B603AE079
:10228C007B681B69002B20D0364B01221A60FFF7AC
:10229C0055FC386108E0FFF751FC02463B69D31A44
:1022AC00022B01D90323A1E12D4B1B6803F0020380
:1022BC00002BF0D02A4B1B6823F0F8027B685B697B
:1022CC00DB00274913430B6015E0264B00221A60F4
:1022DC00FFF734FC386108E0FFF730FC02463B693D
:1022EC00D31A022B01D9032380E11D4B1B6803F089
:1022FC000203002BF0D17B681B6803F00803002B52
:10230C003AD07B689B69002B19D0174B01221A60BD
:10231C00FFF714FC386108E0FFF710FC02463B693C
:10232C00D31A022B01D9032360E10D4B5B6A03F036
:10233C000203002BF0D0012000F09CFA1CE00A4BA9
:10234C0000221A60FFF7FAFB38610FE0FFF7F6FB8B
:10235C0002463B69D31A022B08D9032346E100BF7E
:10236C00001002400000424280044242924B5B6AE1
:10237C0003F00203002BE9D17B681B6803F0040314
:10238C00002B00F0A6800023FB758B4BDB6903F060
:10239C008053002B0DD1884BDB69874A43F0805367
:1023AC00D361854BDB6903F08053BB60BB680123B1
:1023BC00FB75824B1B6803F48073002B18D17F4B89
:1023CC001B687E4A43F480731360FFF7B7FB3861D8
:1023DC0008E0FFF7B3FB02463B69D31A642B01D923
:1023EC00032303E1754B1B6803F48073002BF0D0BF
:1023FC007B68DB68012B06D16F4B1B6A6E4A43F07E
:10240C00010313622DE07B68DB68002B0CD16A4B57
:10241C001B6A694A23F001031362674B1B6A664A05
:10242C0023F0040313621CE07B68DB68052B0CD1E2
:10243C00614B1B6A604A43F0040313625E4B1B6AD8
:10244C005D4A43F0010313620BE05B4B1B6A5A4A73
:10245C0023F001031362584B1B6A574A23F0040301
:10246C0013627B68DB68002B15D0FFF767FB3861C4
:10247C000AE0FFF763FB02463B69D31A41F288324C
:10248C00934201D90323B1E04B4B1B6A03F00203C7
:10249C00002BEED014E0FFF751FB38610AE0FFF798
:1024AC004DFB02463B69D31A41F28832934201D963
:1024BC0003239BE0404B1B6A03F00203002BEED17D
:1024CC00FB7D012B05D13C4BDB693B4A23F0805350
:1024DC00D3617B68DB69002B00F08780364B5B682F
:1024EC0003F00C03082B61D07B68DB69022B46D10F
:1024FC00334B00221A60FFF721FB386108E0FFF72D
:10250C001DFB02463B69D31A022B01D903236DE054
:10251C00294B1B6803F00073002BF0D17B681B6AFE
:10252C00B3F5803F08D1244B5B6823F400327B6801
:10253C009B68214913434B601F4B5B6823F4741257
:10254C007B68196A7B685B6A0B431B4913434B60BE
:10255C001B4B01221A60FFF7F1FA386108E0FFF714
:10256C00EDFA02463B69D31A022B01D903233DE055
:10257C00114B1B6803F00073002BF0D035E0104BAF
:10258C0000221A60FFF7DAFA386108E0FFF7D6FA92
:10259C0002463B69D31A022B01D9032326E0064BD2
:1025AC001B6803F00073002BF0D11EE07B68DB6925
:1025BC00012B07D1012319E00010024000700040EC
:1025CC00600042420B4B5B68FB60FB6803F480329B
:1025DC007B681B6A9A4206D1FB6803F470127B6815
:1025EC005B6A9A4201D0012300E000231846183799
:1025FC00BD4680BD0010024080B584B000AF78604D
:10260C0039607B68002B01D10123D0E06A4B1B6839
:10261C0003F007033A689A4210D9674B1B6823F002
:10262C00070265493B6813430B60634B1B6803F05F
:10263C0007033A689A4201D00123B8E07B681B6813
:10264C0003F00203002B20D07B681B6803F004030B
:10265C00002B05D0594B5B68584A43F4E063536038
:10266C007B681B6803F00803002B05D0534B5B6899
:10267C00524A43F460535360504B5B6823F0F002B2
:10268C007B689B684D4913434B607B681B6803F068
:10269C000103002B40D07B685B68012B07D1474BB3
:1026AC001B6803F40033002B15D101237FE07B68FA
:1026BC005B68022B07D1414B1B6803F00073002BA6
:1026CC0009D1012373E03D4B1B6803F00203002B7F
:1026DC0001D101236BE0394B5B6823F003027B686B
:1026EC005B68364913434B60FFF728FAF8600AE041
:1026FC00FFF724FA0246FB68D31A41F28832934260
:10270C0001D9032353E02D4B5B6803F00C027B686B
:10271C005B689B009A42EBD1274B1B6803F00703C5
:10272C003A689A4210D2244B1B6823F007022249C4
:10273C003B6813430B60204B1B6803F007033A689C
:10274C009A4201D0012332E07B681B6803F004033A
:10275C00002B08D0194B5B6823F4E0627B68DB68C4
:10276C00164913434B607B681B6803F00803002B6E
:10277C0009D0124B5B6823F460527B681B69DB0049
:10278C000E4913434B6000F021F802460B4B5B687B
:10279C001B0903F00F030A49CB5C22FA03F3094A25
:1027AC001360094B1B681846FFF786F9002318467F
:1027BC001037BD4680BD00BF002002400010024013
:1027CC00E43000082C0000203800002080B487B0D2
:1027DC0000AF0023FB600023BB6000237B61002360
:1027EC007B6000233B611E4B5B68FB60FB6803F066
:1027FC000C03042B02D0082B03D027E0194B3B61B0
:10280C0027E0FB689B0C03F00F03174AD35C7B603B
:10281C00FB6803F48033002B10D0114B5B685B0C0E
:10282C0003F00103114AD35CBB607B680D4A03FBC8
:10283C0002F2BB68B2FBF3F37B6104E07B680C4AE9
:10284C0002FB03F37B617B693B6102E0054B3B615F
:10285C0000BF3B6918461C37BD4680BC704700BFA3
:10286C000010024000127A00F43000080431000815
:10287C0000093D0080B485B000AF78600A4B1B683E
:10288C000A4AA2FB03235B0A7A6802FB03F3FB6090
:10289C0000BFFB685A1EFA60002BF9D100BF00BFC5
:1028AC001437BD4680BC70472C000020D34D6210FD
:1028BC0080B582B000AF78607B68002B01D101231A
:1028CC0041E07B6893F83D30DBB2002B06D17B688E
:1028DC00002283F83C207868FEF7ECFC7B6802222F
:1028EC0083F83D207B681A687B68043319461046D0
:1028FC0000F056FA7B68012283F846207B6801229F
:10290C0083F83E207B68012283F83F207B680122FC
:10291C0083F840207B68012283F841207B680122E8
:10292C0083F842207B68012283F843207B680122D4
:10293C0083F844207B68012283F845207B680122C0
:10294C0083F83D20002318460837BD4680BD0000A3
:10295C0080B485B000AF78607B6893F83D30DBB213
:10296C00012B01D0012335E07B68022283F83D2046
:10297C007B681B68DA687B681B6842F00102DA60CE
:10298C007B681B68164A934209D07B681B68B3F1BD
:10299C00804F04D07B681B68124A934211D17B682C
:1029AC001B689B6803F00703FB60FB68062B10D0C9
:1029BC007B681B681A687B681B6842F001021A600E
:1029CC0007E07B681B681A687B681B6842F0010291
:1029DC001A60002318461437BD4680BC704700BFF0
:1029EC00002C01400004004080B584B000AF78603A
:1029FC007B681B68DB68FB607B681B681B69BB60C2
:102A0C00BB6803F00203002B20D0FB6803F0020329
:102A1C00002B1BD07B681B686FF002021A617B686D
:102A2C0001221A777B681B689B6903F00303002B58
:102A3C0003D0786800F098F905E0786800F08BF91D
:102A4C00786800F09AF97B6800221A77BB6803F06B
:102A5C000403002B20D0FB6803F00403002B1BD0D5
:102A6C007B681B686FF004021A617B6802221A777C
:102A7C007B681B689B6903F44073002B03D0786858
:102A8C0000F072F905E0786800F065F9786800F0FC
:102A9C0074F97B6800221A77BB6803F00803002BDB
:102AAC0020D0FB6803F00803002B1BD07B681B684D
:102ABC006FF008021A617B6804221A777B681B6826
:102ACC00DB6903F00303002B03D0786800F04CF9AA
:102ADC0005E0786800F03FF9786800F04EF97B6803
:102AEC0000221A77BB6803F01003002B20D0FB6880
:102AFC0003F01003002B1BD07B681B686FF01002D7
:102B0C001A617B6808221A777B681B68DB6903F4FF
:102B1C004073002B03D0786800F026F905E0786844
:102B2C0000F019F9786800F028F97B6800221A7710
:102B3C00BB6803F00103002B0CD0FB6803F001030E
:102B4C00002B07D07B681B686FF001021A61786854
:102B5C00FEF734FABB6803F08003002B0CD0FB6843
:102B6C0003F08003002B07D07B681B686FF080029A
:102B7C001A61786800F06FFABB6803F04003002B11
:102B8C000CD0FB6803F04003002B07D07B681B685C
:102B9C006FF040021A61786800F0F8F8BB6803F037
:102BAC002003002B0CD0FB6803F02003002B07D074
:102BBC007B681B686FF020021A61786800F042FA9B
:102BCC0000BF1037BD4680BD80B584B000AF7860C3
:102BDC0039600023FB737B6893F83C30012B01D1E7
:102BEC000223B4E07B68012283F83C207B6802223C
:102BFC0083F83D207B681B689B68BB60BB6823F037
:102C0C007703BB60BB6823F47F43BB607B681B68A6
:102C1C00BA689A603B681B68B3F5005F3ED0B3F5A9
:102C2C00005F00F28780B3F5805F00F08680B3F51B
:102C3C00805F7FD8702B1AD0702B7BD8602B50D034
:102C4C00602B77D8502B3CD0502B73D8402B58D0BE
:102C5C00402B6FD8302B64D0302B6BD8202B60D00E
:102C6C00202B67D8002B5CD0102B5AD062E07B68ED
:102C7C0018683B6899683B685A683B68DB6800F0E9
:102C8C006AF97B681B689B68BB60BB6843F0770381
:102C9C00BB607B681B68BA689A604FE07B681868F9
:102CAC003B6899683B685A683B68DB6800F053F9ED
:102CBC007B681B689A687B681B6842F480429A6048
:102CCC003CE07B6818683B6859683B68DB681A46CF
:102CDC0000F0CAF87B681B685021184600F021F9F7
:102CEC002CE07B6818683B6859683B68DB681A46BF
:102CFC0000F0E8F87B681B686021184600F011F9B9
:102D0C001CE07B6818683B6859683B68DB681A46AE
:102D1C0000F0AAF87B681B684021184600F001F906
:102D2C000CE07B681A683B681B681946104600F07B
:102D3C00F8F803E00123FB7300E000BF7B6801227D
:102D4C0083F83D207B68002283F83C20FB7B1846EF
:102D5C001037BD4680BD80B483B000AF786000BF33
:102D6C000C37BD4680BC704780B483B000AF786030
:102D7C0000BF0C37BD4680BC704780B483B000AF39
:102D8C00786000BF0C37BD4680BC704780B483B000
:102D9C0000AF786000BF0C37BD4680BC70470000A8
:102DAC0080B485B000AF786039607B681B68FB60CD
:102DBC007B682B4A934207D07B68B3F1804F03D0DA
:102DCC007B68284A934208D1FB6823F07003FB60B0
:102DDC003B685B68FA681343FB607B68204A93424C
:102DEC0007D07B68B3F1804F03D07B681D4A9342B8
:102DFC0008D1FB6823F44073FB603B68DB68FA681E
:102E0C001343FB60FB6823F080023B685B69134350
:102E1C00FB607B68FA681A603B689A687B68DA62C8
:102E2C003B681A687B689A627B680D4A934203D1AF
:102E3C003B681A697B681A637B6801225A617B685C
:102E4C001B6903F00103002B05D07B681B6923F081
:102E5C0001027B681A6100BF1437BD4680BC704705
:102E6C00002C01400004004080B487B000AFF86033
:102E7C00B9607A60FB681B6A7B61FB681B6A23F094
:102E8C000102FB681A62FB689B693B613B6923F09A
:102E9C00F0033B617B681B013A6913433B617B691F
:102EAC0023F00A037B617A69BB6813437B61FB687F
:102EBC003A699A61FB687A691A6200BF1C37BD4691
:102ECC0080BC704780B487B000AFF860B9607A609E
:102EDC00FB681B6A7B61FB681B6A23F01002FB68B2
:102EEC001A62FB689B693B613B6923F470433B614D
:102EFC007B681B033A6913433B617B6923F0A00396
:102F0C007B61BB681B017A6913437B61FB683A697F
:102F1C009A61FB687A691A6200BF1C37BD4680BC97
:102F2C00704780B485B000AF786039607B689B686F
:102F3C00FB60FB6823F07003FB603A68FB6813438B
:102F4C0043F00703FB607B68FA689A6000BF143794
:102F5C00BD4680BC704780B487B000AFF860B960E4
:102F6C007A603B60FB689B687B617B6923F47F43E1
:102F7C007B613B681A027B681A43BB6813437A690E
:102F8C0013437B61FB687A699A6000BF1C37BD46AE
:102F9C0080BC704780B485B000AF786039607B68C6
:102FAC0093F83C30012B01D1022341E07B680122D4
:102FBC0083F83C207B68022283F83D207B681B68E9
:102FCC005B68FB607B681B689B68BB60FB6823F0DD
:102FDC007003FB603B681B68FA681343FB607B68FB
:102FEC001B68FA685A607B681B68144A934209D0C4
:102FFC007B681B68B3F1804F04D07B681B68104A58
:10300C0093420CD1BB6823F08003BB603B685B68C8
:10301C00BA681343BB607B681B68BA689A607B68AC
:10302C00012283F83D207B68002283F83C2000239A
:10303C0018461437BD4680BC704700BF002C0140B9
:10304C000004004080B483B000AF786000BF0C3740
:10305C00BD4680BC704780B483B000AF786000BFC1
:10306C000C37BD4680BC704703460244934200D1E6
:10307C00704703F8011BF9E770B500260C4D0D4C99
:10308C00641BA410A64209D100F01AF800260A4DC0
:10309C000A4C641BA410A64205D170BD55F8043B24
:1030AC0098470136EEE755F8043B98470136F2E7AE
:1030BC000831000808310008083100080C310008FC
:1030CC00F8B500BFF8BC08BC9E467047F8B500BF09
:0830DC00F8BC08BC9E467047D9
:1030E40000000000000000000102030406070809B4
:1030F40002030405060708090A0B0C0D0E0F101035
:0431040001020000C4
:043108003101000889
:04310C000D010008A9
:1031100070170000D0070000B80B0000640000002A
:103120006400000064000000000C0140000C01403D
:10313000000C0140010002000400000000127A00AF
:103140000A00000001000000100000000100000063
:0400000508001A4D88
:00000001FF
